:100000000C9425030C945D030C945D030C945D0328
:100010000C945D030C945D030C945D030C945D03E0
:100020000C945D030C945D030C9459280C942C29BA
:100030000C949F220C945D030C945D030C945D035F
:100040000C945D030C945D030C945D030C945D03B0
:100050000C945D030C9437230C945D030C945D03A6
:100060000C945D030C945D030C945D030C945D0390
:100070000C945D030C945D030C945D030C945D0380
:100080000C945D030C945D030C945D030C945D0370
:100090000C945D030C945D030C945D030C945D0360
:1000A0000C945D030C945D030C945D032900140013
:1000B0001A000800150017001C0018000C001200A0
:1000C00013002E002B0004001600070009000A0090
:1000D0000B000D000E000F0000002800067E1D0022
:1000E0001B0006001900050011001000360000007A
:1000F00037004C00E000E300E2002C41000000006B
:100100002C420000000038002D002D0201004A00A2
:1001100052004D002F003000010001002402310286
:10012000417E01000100500051004F0026022702CD
:10013000010001003300340000002A000100027EAB
:10014000037E047E057E010001000100E200000044
:100150000100010001000100010001000000000099
:100160002C430000000001000100010001001E00FE
:100170001F0020000100010001000100010001003A
:1001800001000100270021002200230001000100DE
:10019000010001003300340000002A0001002400A7
:1001A00025002600010001000100010001000000FF
:1001B000010001000100010001002C4300000000CB
:1001C0000100000000000100010001005F7ED1007D
:1001D000CD00D2003A003B003C00010001000100CC
:1001E0000100007C0100CF00CE00D0003D003E00A9
:1001F0003F000100010001000000007E0100D90065
:10020000D300DA00400041004200430004520000E5
:100210004500010001000100010001000000000094
:10022000010000000000597E5A7E20781E00060062
:100230001A000800150017003E003D003C003B007E
:100240003A0029001F0004001600070009000A00F8
:10025000000000000000000000002800E100140081
:1002600021001B00050005000000000000520000F6
:100270005200E100E000E20020002C00000000003D
:10028000017E00000000500051004F0044454255DF
:10029000473A2064697361626C65642E0A004445C4
:1002A0004255473A20656E61626C65642E0A000A09
:1002B0000025303258006C65645F7461736B3A20BE
:1002C000004F6E6573686F743A2061637469766578
:1002D0003A2025640A000A002530313662003A20AF
:1002E0000025303258000A722F6320303132333407
:1002F00035363738394142434445460A00290A0019
:100300002575002F002575005D280025640020005C
:10031000256400200025640020002564007C002561
:10032000303258006D6F7573656B6579205B627450
:100330006E7C782079207620685D287265702F6148
:10034000636C293A205B0000000000000000002AD6
:100350002B2800000000000000000000000000004A
:10036000000029000000002C1E3420212224342605
:1003700027252E362D3738271E1F202122232425FE
:10038000263333362E37381F0405060708090A0BB3
:100390000C0D0E0F101112131415161718191A1B25
:1003A0001C1D2F3130232D350405060708090A0BC3
:1003B0000C0D0E0F101112131415161718191A1B05
:1003C0001C1D2F3130354C000000000000000000E3
:1003D000000000000000000000000000000000001D
:1003E00000000000000000000000007E0F00D4FFAD
:1003F000FFFFC7000000780A002530325820006E49
:100400006B726F5F7265706F72743A20253032586C
:10041000207C20000A002530325820006B6579626C
:100420006F6172645F7265706F72743A202530324A
:1004300058207C200064656C5F6B65795F6269742D
:100440003A2063616E27742064656C3A202530324F
:10045000580A006164645F6B65795F6269743A2071
:1004600063616E2774206164643A20253032580A33
:100470000073757370656E64696E67206B65796271
:100480006F6172640D0A005B575D005B535D005B3A
:10049000525D005B445D005B435D000C03460065FC
:1004A0000062003400300000001203660065006244
:1004B000007200650065007A006500000004030911
:1004C0000409025B00030100A0FA09040000010313
:1004D00001010009211101000122440007058103E7
:1004E00008000109040100010300000009211101B5
:1004F000000122B600070582032000010904020062
:100500000203000000092111010001222200070559
:1005100083032000010705030320000112010002EC
:100520000000000864694200000101020001063178
:10053000FF0974A1010975150026FF0095207508B3
:1005400081020976150026FF00952075089102C0EA
:1005500005010902A10185020901A100050919018E
:10056000290815002501950875018102050109304A
:1005700009311581257F9502750881060938158195
:10058000257F950175088106050C0A38021581251D
:100590007F950175088106C0C005010980A101850C
:1005A0000319012AB700150126B7009501751081BE
:1005B00000C0050C0901A101850419012AA002153A
:1005C0000126A002950175108100C005010906A150
:1005D000018506050719E029E7150025019508752D
:1005E0000181020507190029EF1500250195F07515
:1005F00001810205081901290595057501910295EA
:100600000175039101C005010906A101050719E063
:1006100029E71500250195087501810295017508E6
:1006200081010507190029FF150026FF00950675B1
:100630000881000508190129051500250195057592
:10064000019102950175039101C011241FBECFEFE6
:10065000DAE0DEBFCDBF04B603FE18C08091790397
:1006600090917A03A0917B03B0917C038730904BEB
:10067000A740B04B59F41092790310927A0310926C
:100680007B0310927C03E0E0F8E3099512E0A0E020
:10069000B1E0E4E1F8E502C005900D92AE35B10796
:1006A000D9F723E0AEE5B2E001C01D92A937B20749
:1006B000E1F70E945C1A0C94AF2B0C940000FF939E
:1006C000EF93E0915E02F0915F02309709F0099597
:1006D000EF91FF910895FC018591803011F0EFDFDB
:1006E000FBCF0895FF27E0E230E247FF0CC04195C1
:1006F00097FF09C0EDE26095709580959095611D1A
:10070000711D811D911D27FF02C0219530E350E22C
:10071000AA27660F771F881F991FAA1FA41710F01A
:10072000A41B63955A95A9F7AA3008F0A95FA05DAC
:10073000AF93F395611571058105910541F7ED3290
:1007400011F4EF93F395F21718F43F93F395FBCF61
:100750008F91B5DFFA95E1F70895E991F9918591C7
:10076000803021F0853219F0AADFF9CF089520E01A
:10077000E89455915532C1F3503311F46894559172
:100780005A3348F4505390F3220F022E220F220FB7
:10079000200D250FF4CF0EF42195899199915336B0
:1007A00019F3533729F1533559F1BC01882799279B
:1007B000E8945C3621F48991999168945591543666
:1007C00039F446EF7EF077FF0DC08FEF9FEF0AC040
:1007D00055374AE039F0583540E121F0523642E0D1
:1007E00009F00895FF93EF937DDFEF91FF91B7CF6D
:1007F000FF93EF93FC0181918030B9F360DFFBCF71
:10080000FF93EF9368DFF1CFDF93CF93CDB7DEB7E0
:100810002596A3DFCF91DF9108950E949713282F8B
:10082000482F817191E0811101C090E0990F81E022
:10083000211180E0982B822F880F880F8470982BCD
:1008400044FB882780F9880F880F880F982B81E058
:10085000322F3474311101C080E08295807F982B53
:1008600042FB882780F98295880F807E982B46FB73
:10087000882780F98295880F880F807C982B81E0EB
:10088000322F3878311101C080E08795882787950D
:10089000982B90930401822F881F8827881F880F28
:1008A00043FB992790F9892B227291E0211101C015
:1008B00090E0990F990F892B41FB992790F9990F97
:1008C000990F990F892B45FB442740F94295407FAA
:1008D000842B8F7190910501907E892B8093050167
:1008E00080910401909105010895FC01E05EF109F9
:1008F000E830F105B0F5EF54F44D0C94F62A8091F0
:10090000040160FB82F960FB81F980930401089582
:100910008091040160FB83F9F6CF8091050160FBB3
:1009200080F9809305018091040160FB87F9EDCF88
:100930008091050160FB81F9F4CF8091040160FB97
:1009400085F960FB84F9E1CF8091040160FB86F9B1
:10095000F8CF8091050160FB83F960FB82F98093F9
:10096000050108958091050160FB84F9F6CF982F69
:10097000862F992319F00E949A1308950E94A013BC
:1009800008950F931F93CF93DF9304E011E0F801D4
:10099000808161E082FB882780F90E94B704F8011A
:1009A000808160E183FB882780F90E94B704C5E05D
:1009B000D1E0888168E081700E94B704888160E896
:1009C000869581700E94B704F801808164E085FB00
:1009D000882780F90E94B704F801808160E486FBD3
:1009E000882780F90E94B704888162E083FB88270A
:1009F00080F90E94B704888160E2829581700E942C
:100A0000B704DF91CF911F910F910895FB018F35AE
:100A10009E4789F42581222361F080916102082E8E
:100A2000000C990B019662E070E00E94E22A80932C
:100A30006102822F089520E0FCCFCF92DF92FF92D7
:100A40000F931F93CF93DF93F82E092F6B018091A3
:100A50000001909101010E946509EC01892BE9F0E8
:100A600088818823D1F0F6011581112369F08F2D3B
:100A7000902F0E94ED0980910001909101010E9448
:100A8000ED09CE010E945A1F812FDF91CF911F9156
:100A90000F91FF90DF90CF90089510E0F5CF0F9366
:100AA0001F93CF93DF938C01FB012181808190E024
:100AB000EC01CC0FDD1FC80FD91F84E2289FC00DA9
:100AC000D11D1124CE5FDE4F8E899581992321F1AE
:100AD00081112FC0809160028823C9F081E08E8B44
:100AE0008091000190910101988F8F8B60E0C80187
:100AF0000E94750461E08F89988D0E947504C80179
:100B00000E94ED098F89988D0E94D70981E0DF91BD
:100B1000CF911F910F9108958823C9F31E8A8F8961
:100B2000988D0E94ED0960E08F89988D0E94750470
:100B3000EDCF80E0ECCFEF92FF920F931F93CF9316
:100B4000DF938C017B010E940605C82F811169C0CB
:100B5000C80190528115904328F4F70186818031B5
:100B600008F459C010926002109301010093000133
:100B70000E940D0490930501809304018FEF0E9461
:100B8000A013F7016581C8010E94750460910401FA
:100B90007091050180910001909101010E9445082A
:100BA000EC018F3F980721F09093010180930001A1
:100BB00040916102042E000C550B6091040170916C
:100BC000050180910001909101010E94E9089C01BA
:100BD0002F3F320781F4219691F410926002B70101
:100BE000C8010E941D05811113C0B701C8010E94F0
:100BF0004F05C82F0EC0309301012093000181E002
:100C0000809360028091000190910101892B39F756
:100C1000C1E00E94C1048C2FCDB7DEB7E6E00C9492
:100C2000242BC0E0F8CF9C0180910201843009F4AC
:100C300057C0409103018091060140FB81F9203E9D
:100C4000310571F08091060140FB83F9233E3105A7
:100C500039F0223E310531F48091060140FB82F9E2
:100C600080930601909106019E7051E0911101C0A0
:100C700050E08091060150FB84F98093060140FF0B
:100C800030C02B32310561F580FD2AC0992341F136
:100C9000909161029130E1F482FF0BC082EE90E00E
:100CA0000E94ED0984E00E94A01383EE90E00E9470
:100CB000D7098091060183FF0BC083EE90E00E946C
:100CC000ED0988E00E94A01380EE90E00E94D70911
:100CD00081E00E94940F809106018160809306015B
:100CE000089580FFFDCF80916102813061F4223E42
:100CF0003105F9F483EE90E00E94ED098091060140
:100D00008B7F80930601809106018E7091E08111A6
:100D100001C090E08091060190FB84F98093060168
:100D200084FDDECF80E00E94940F809106018E7FCB
:100D3000D5CF233E310539F780EE90E00E94ED09D2
:100D400080910601877FDDCF9C012C3283E4380738
:100D500079F050F42C3281E4380751F081E02C32E4
:100D6000324439F080E0089581E021153C47F9CF05
:100D700081E00895CF9381309E4721F0C0E08C2F11
:100D8000CF910895C0910301C17080910E01C0FB05
:100D900080F980930E01CC2389F3846080930E0147
:100DA00080910A0190910B010E94282390930D01DC
:100DB00080930C010E94FF2290930B0180930A0103
:100DC0001092070120910C0130910D0180910801D2
:100DD000909109012817390790F681E08093070167
:100DE000CECF80910E0182FF21C080FD20C081FF07
:100DF0001DC08B7F80930E018BE290E00E94ED0975
:100E000089E390E00E94ED0980910E0183FF09C003
:100E100089E390E00E941D0A80910E01877F8093F4
:100E20000E0180910E018D7F80930E01089581FD4A
:100E3000FDCF80910701811109C08BE290E00E94F3
:100E4000D70980910E01877F80930E018091070161
:100E5000813049F489E390E00E94D70980910E0126
:100E6000886080930E0180910E018260DDCF0F9328
:100E70001F93CF93DF93EC0180910201843041F402
:100E8000C430D10539F004E010E0C730D10521F0BD
:100E900080E021C007E010E080910F0190911001E7
:100EA0002091030120FF1CC0C817D90799F00097B3
:100EB00011F00E94ED0980910F0190911001909323
:100EC000120180931101D0931001C0930F01CE0144
:100ED0000E94D70981E0DF91CF911F910F91089572
:100EE000C817D907D1F4CE010E94ED0980911101F4
:100EF000909112018017910719F4C8010E94D70937
:100F000080911101909112019093100180930F0133
:100F10001092120110921101DDCF80911101909178
:100F200012018C179D07B1F6F3CF86309E4701F56D
:100F30000E94FF2290931701809316019091030164
:100F40008091130190FB80F98093130180FF0BC007
:100F50008091140190911501019690931501809351
:100F6000140181E0089581EE90E00E94ED09F9CF2F
:100F700080E0089580911601909117010E94282326
:100F80004091130140FD11C0853B910560F08091B7
:100F9000140190911501181619062CF401979093DD
:100FA00015018093140140FF13C0809114019091AA
:100FB0001501029749F480E19FE00E941D0A1092FA
:100FC000150110921401089581EE90E00E94D70956
:100FD000089580912C03816080932C0308950E94D2
:100FE000F1060E94BA070895EF92FF920F931F93A4
:100FF000CF938C017B0180918002909181020E94AD
:10100000220B8093020180910301F701958190FBEF
:1010100080F980930301C8010E94A406C82F8111A2
:101020001EC0B701C8010E949B05F82E0091000167
:1010300010910101C8010E943707811110C0C80139
:101040000E94BA0681110BC0C8010E949507811148
:1010500006C081E0CF2DC827C8010E9413068C2F3F
:10106000CF911F910F91FF90EF9008959C012C322A
:1010700082E4380739F03D7F2C32314419F084EB9B
:1010800090E008958EE690E008958932910539F454
:1010900064FD96C072FF9AC085E390E0089588329F
:1010A000910529F472FF92C08AE290E008958115BB
:1010B0002EE7920709F487C08433910539F472FD55
:1010C00087C060FF83C084E392E008958D3222E000
:1010D000920719F472FF7AC008958E32910529F4AF
:1010E00072FF74C082E49EE708958F32910529F45F
:1010F00072FF6CC086E392E008958033910529F475
:1011000072FF64C087E392E00895863222E092077E
:1011100029F472FF5BC08FE292E00895873222E0EB
:10112000920729F472FF52C080E392E0089584325E
:1011300022E0920729F472FF49C080E49EE70895F7
:10114000813322E0920729F472FF40C08FE19EE7CD
:1011500008958633910529F472FF38C08EE192E03C
:1011600008958733910529F472FF30C088E392E037
:1011700008958833910529F472FF28C081E390E037
:1011800008958A34910529F461FF20C08BE490E032
:1011900008958D34910529F461FF18C08EE490E024
:1011A00008958632910529F472FF10C085E392E01C
:1011B00008958D9759F472FF09C087E590E008956E
:1011C0008BE290E0089588E292E108958FEF9FEF1F
:1011D00008959C014130510509F057C0833E9105A7
:1011E00009F461C0B8F48F34910559F150F48A3490
:1011F0009105E9F18D34910509F442C08FEF9FEF1D
:1012000008958035910541F1803E9105B9F783EE4F
:1012100090E0089524308EE7380709F447C058F469
:1012200022308EE7380709F444C023303E4731F7B7
:101230008BE198E0089525303E4701F789E198E079
:1012400008958091060180FDD9CF67FFD7CF72FF47
:1012500033C08FE496E008958091060180FDCECFE3
:1012600067FFCCCF72FF2BC080E596E00895809198
:10127000060180FD27C067FFC1CF8BE490E0089591
:1012800067FFBCCF8EE490E0089522503E472430A3
:10129000310508F0B3CF220F331FF901E553FE4F9C
:1012A00080819181089580EE90E0089586E098E035
:1012B00008958DE198E008958FE494E0089580E525
:1012C00094E0089584E198E008959C012F318EE721
:1012D000380771F020348EE7380769F021348EE743
:1012E000380761F022343E4761F084EC91E00895C4
:1012F0008FEB91E0089582EC91E0089585EC91E008
:10130000089588EC91E008958530B8F46430A8F42D
:101310004C3098F4E42FF0E09CE0699FE00DF11D63
:10132000112490E3899FE00DF11D1124EE0FFF1FA2
:10133000E455FF4F85919491089581E090E00895E0
:101340000E94840908959C019A9581159F4118F582
:10135000F901EE27F270832F8170B901662774704E
:10136000A9014427587034FF0CC08295807FEF2B71
:1013700009F08062672B09F08064452B69F0806872
:101380000895EF2B09F08260672B09F08460452BEC
:1013900019F08860089580E00895CF93DF93EB0102
:1013A0000E94A309FE010995DF91CF910895CF9383
:1013B000DF93EC01805E9109089720F061EF7EE0F9
:1013C000209711F467EA7CE0CE010E94CD098C2FB2
:1013D0000E940B0CDF91CF910895CF93DF93EC0126
:1013E0000E94530CCE01805E9109089720F068EFAF
:1013F0007EE0209711F46EEA7CE0CE010E94CD09D8
:10140000DF91CF9108950F931F93CF93DF938C01BA
:10141000EB010E94D709209741F4C8010E94ED0911
:10142000DF91CF911F910F9108958FE99FE0019770
:10143000F1F700C000002197EECF60E070E0893343
:10144000910511F460E570E00E94030A089581E0BF
:1014500008950E94270A089581E008950E94F407E4
:10146000089508950E94310A0895A6E0B0E0EBE3E4
:10147000FAE00C940B2B49835A839E8330916702C8
:1014800089819A8131111AC03E81332399F0222338
:1014900089F00E946710182F682F89819A810E9415
:1014A000431069817A81812F0E9484172696E3E098
:1014B0000C94272B0E945510182FF3CF0E94671011
:1014C00069817A81F1CFFC01262F408151816281AF
:1014D0007381848195810E94350A0895CF93DF93AB
:1014E000D82FC92F61E00E94630A6D2F7C2F0E94C4
:1014F000290ADF91CF910895CF93DF93D82FC92F79
:1015000060E00E94630A6D2F7C2F0E94320ADF91F7
:10151000CF91089581E008950E948A0A0895CF939B
:10152000C82F0E94150F8C2F0E948C0A2FEF84E386
:101530009CE0215080409040E1F700C00000CF9136
:10154000089581E00E948F0A0E945B23089580E045
:101550000E948F0A0E947F2308950F931F93CF93B9
:10156000DF938C0161E00E94630AEC01B8010E94E4
:101570002E0A8823D1F1B801CE010E94D71F8823FB
:10158000A1F1B801CE010E94991A882371F1B80126
:10159000CE010E946E1A882341F1F80185818823CB
:1015A00081F0C330FCE7DF07C1F178F4C130ECE72C
:1015B000DE07A9F1C230FCE7DF07E9F0C115DC471F
:1015C00091F0C8010E942C0A11C0CB35ECE7DE0770
:1015D00061F1CC35FCE7DF0729F1CA35DC4789F733
:1015E0000E94CB14EECF0E94A10A80E0DF91CF9140
:1015F0001F910F91089590912C03892F8E7F90FF5A
:10160000816080932C0380FF05C08EE992E00E94E8
:101610006B03EBCF8CE892E0FACF0E94D3140E94C8
:10162000A70AE3CF0E94C114CCCF0E94CF14C9CF28
:101630000E947B220E94840B08950E94880B0E94C6
:10164000802208959C01892F99270097E9F09C0139
:1016500088E0A90174E0569547957A95E1F7411520
:10166000510511F08C5F9A01A90156954795569541
:1016700047954115510511F08E5F9A0136952795D2
:10168000232B09F08F5F089580E0E3CF829594E0EB
:10169000899F900111242C7C869586958373282B35
:1016A00030E0C901880F991F8A7A359527952575ED
:1016B000822B0895CF93DF93D92F0E94460BC82F1A
:1016C0008D2F0E94460B9C2FDF91CF910895089596
:1016D00081E008950895CF93DF93D82F0E94680B7F
:1016E000C82F882319F08D2F0E946A0B8C2FDF9151
:1016F000CF9108950895CF93C82F0E94670B8C2F28
:101700000E946B0BCF91089580E00E947B0B08959F
:101710000E941D200E947B0B0895CF930E941D20E4
:10172000C82F809162028C1789F1C09362020E94D7
:101730000B2360936302709364028093650290931D
:10174000660280912C0382FF1EC080FF1CC086EBC6
:1017500092E00E946B0380912C0380FF14C01F92C3
:10176000CF9381EB92E09F938F930E94040480912A
:101770002C030F900F900F900F9080FF04C08FEA02
:1017800092E00E946B038C2F0E947B0BCF910895F7
:10179000ADE0B0E0EEECFBE00C940C2B48875987F1
:1017A0006A877B878C879D8791110E94B9131F825E
:1017B00086E0FE013896DE01119601900D928A9521
:1017C000E1F78D8181110DC029813A814B815C81C6
:1017D0006D817E818F810E94FF122D96E2E00C9434
:1017E000282BCE0101960E946E0A8111EDCFF5CF14
:1017F000FC018481813021F4808191810E949910C3
:101800000895662329F00E94071C0E94DD1C08959C
:101810000E94651CFACFCF93C82F882399F08CEFD4
:101820008C0F813A88F48C2F0E943B21882329F069
:101830008C2F0E94FF210E9451148C2F0E94E821BE
:101840000E945114CF91089580E28C0F883048F4A3
:10185000C77081E001C0880FCA95EAF70E949A1309
:10186000EFCF8BE58C0F833038F42C2F2452330BC1
:10187000C9010E94CE20E6CFE8E5EC0FEB3150F431
:10188000F0E0EE0FFF1FED52FE4F808191810E942C
:10189000F420D8CF83E38C0F8331A0F661E08C2F46
:1018A0000E94010CCFCF882381F19CEF980F913AD1
:1018B00028F40E94FF210E945114089590E2980F8D
:1018C000983050F4877091E001C0990F8A95EAF73B
:1018D000892F0E94A013EFCF9BE5980F933028F437
:1018E00080E090E00E94CE20089598E5980F9B310B
:1018F00028F480E090E00E94F420089593E3980F8C
:10190000933118F460E00E94010C08951F93CF9367
:10191000DF93182FEB010E940B0C209739F4812FD5
:101920000E94530CDF91CF911F9108958FE99FE0A2
:101930000197F1F700C000002197EFCF60E070E061
:10194000893311F460E570E00E94860C08958823C5
:1019500021F00E949A130E9451140895882321F0C7
:101960000E94A0130E9451140895A0E0B0E0EBEB98
:10197000FCE00C94062B6C01D62FC72FFC011581BF
:10198000068102950F700E948F13E82E8823F9F0CC
:10199000E12E1123E1F08C2F807F803461F080E212
:1019A0008D0F8830F0F08C2F807E803221F4D23081
:1019B000C0F00023B1F08091570382FF12C082E093
:1019C0000E9481140E948F1391E0E82EE926EC2FEB
:1019D000E295EF70C03CB0F5F0E0E754F44D0C94A4
:1019E000F62AE12CF4CF0C2F0F70C03110F00295C5
:1019F000007F112399F0002359F080E28D0F883089
:101A000010F0D11107C0802F0E949A130E94511428
:101A10008D2F51C0802F0E94AB13F8CF8D2F0E94C5
:101A2000530C002379F080E28D0F883010F0D11133
:101A300004C0802F0E94A01303C0802F0E94B11306
:101A40000E945114EE2089F00E948B1380FD0DC07E
:101A5000F60115820E9485130E94A00FC6010E9404
:101A6000CE0E0E9485130E94B00FCDB7DEB7E8E01E
:101A70000C94222BFC2FFF70FF2EC07FC03219F078
:101A8000F29480EFF822DD2341F0D130D1F111231F
:101A900009F444C00023F1F0BBCF8091570382FDCD
:101AA00015C0112359F0FF2029F08F2D0E949A13A1
:101AB0000E94511480E00E940B0CC4CF80E00E9471
:101AC000530CFF2009F4BECF8F2DB4CF112369F042
:101AD000011104C08F2D0E94A70CB4CF013009F072
:101AE000B1CF8F2D0E94D113ADCF0111ABCF8F2D70
:101AF0000E94AE0C8F2D0E94DD138F2D0E94C0130B
:101B0000A1CF112321F0063008F09CCFE3CF0530A0
:101B100008F098CF8F2D0E94AE0C94CF0023D1F304
:101B2000D93349F42FEF87EE93E021508040904065
:101B3000E1F700C000008D2F0E94530C83CF8C2F43
:101B4000869586958370882369F0813009F07ACF75
:101B50008D2F9C2F9370111102C080E090E00E94A5
:101B6000F42070CF8D2F9C2F9370111102C080E054
:101B700090E00E94CE2066CF612F8D2F0E94010C35
:101B800061CF8C2F8370811139C0111129C04D2F65
:101B9000429546954770440F440F2D2F2F7030E02B
:101BA000042E02C0220F331F0A94E2F780E090E077
:101BB000D4FF09C08FE090E002C0880F991F4A95BA
:101BC000E2F780959095C695C695C370822B932BAE
:101BD000C23071F0C33079F0C13039F00E94700F1B
:101BE0000E941D200E947B0B2DCF0E94670FF8CF13
:101BF0000E94790FF5CF0E94640FF2CF112361F19B
:101C0000C0FFEECF4D2F429546954770440F440FCD
:101C10002D2F2F7030E0042E02C0220F331F0A94A4
:101C2000E2F780E090E0D4FF09C08FE090E002C0CE
:101C3000880F991F4A95E2F780959095C695C695AD
:101C4000C370822B932BC23069F0C33071F0C13066
:101C500031F00E94DB0FC4CF823010F2D3CF0E944C
:101C6000D20FBECF0E94E40FBBCF0E94880FB8CF27
:101C7000CF70112339F08C2F0E94A00F8D2F0E945E
:101C8000A70CAECF8D2F0E94AE0C8C2F0E94B00FF0
:101C9000A7CFD23F31F170F4D03FB9F0D13FB1F1CD
:101CA000112309F451C0002309F44BC08D2F0E9469
:101CB0000B0C96CFD33FE1F0D43F21F11111F3CFBC
:101CC000011150C08C2F8F71E1CF112341F00530ED
:101CD00008F086CF8C2F8F710E94C20F81CF053004
:101CE000F7CF8C2F8F711111D1CF0E94A00F78CF19
:101CF000112329F08C2F8F710E94940F71CF0E94B5
:101D00008F0F6ECF8091570382FD06C08C2F8F718D
:101D1000112309F4BBCFE9CF112349F0CF718C2FE8
:101D20000E94A00F63E08C2F0E94631459CF81E0C2
:101D30000E948114023008F453CF82E00E94811483
:101D40004FCF8C2F8F71D1CF002309F4BBCFD93364
:101D500049F4EFEFF7EE23E0E150F0402040E1F7E7
:101D600000C000008D2F0E94530C3ACF0F931F9399
:101D7000CF93DF93EC01688179818D810E94A61059
:101D80008C010E94ED0F0E94630FB801CE010E94EA
:101D9000B50CDF91CF911F910F910895CF93DF93F1
:101DA000EC018C81882399F0CE010E94AD0A81114B
:101DB00011C00E948F13882351F08D81882339F040
:101DC0008091570382FF03C082E00E948114DF915B
:101DD000CF910895CE010E94B60ECE010E947C0ADA
:101DE000F6CF882321F00E94AB130E94511408956E
:101DF000882321F00E94B1130E945114089580E0BD
:101E000090E00E94CE2080E090E00E94F4200E94AA
:101E1000B9130E9451140E947C1D0E94DD1C08957C
:101E20000E9416220E94FF0E08950E94A8130E948D
:101E3000100F0895282F92959F70963091F060F4BE
:101E4000925F9F70923030F481E0203F79F030F45F
:101E5000283E30F080E008959A5FF3CF243FD1F719
:101E6000089581E0283EE0F3213FF9CF0895FC0179
:101E70008481882339F0808191810E9499100E9489
:101E80001A0F089580E00895A6E0B0E0EAE4FFE0CC
:101E90000C940C2B2696E2E00C94282BA7E0B0E0E3
:101EA000E4E5FFE00C940C2B2796E2E00C94282B41
:101EB00008950E94580F08950E94590F909383022D
:101EC00080938202089508950E945C0F08952091E6
:101ED000820230918302822B932B0E945C0F089523
:101EE0002091820230918302822393230E945C0F0F
:101EF00008952091820230918302822793270E94C5
:101F00005C0F08950E94580F08950E94820F089553
:101F10000E94850F9093810280938002089580E053
:101F200090E00E94880F089521E030E0A90102C0EE
:101F3000440F551F8A95E2F7CA010E94880F089541
:101F400021E030E002C0220F331F8A95E2F7809132
:101F5000800290918102822B932B0E94880F08951A
:101F600021E030E002C0220F331F8A95E2F720956E
:101F700030958091800290918102822393230E9468
:101F8000880F089521E030E002C0220F331F8A95A8
:101F9000E2F78091800290918102822793270E942C
:101FA000880F08952091800230918102822B932B1B
:101FB0000E94880F0895209180023091810282232F
:101FC00093230E94880F089520918002309181020E
:101FD000822793270E94880F089508959B016770B8
:101FE00091E001C0990F6A95EAF763E0369527956D
:101FF0006A95E1F7220F331F220F331FFA01E20F18
:10200000F31F40E050E0682F70E08191DF011197ED
:102010009B01042E02C0369527950A94E2F72170A1
:1020200021952827292328272C934F5F5F4F443081
:10203000510559F708959C01982F977083E03695C4
:1020400027958A95E1F7220F331F220F331FFB01DB
:10205000E20FF31F40E050E080E0219130E0092ED4
:1020600002C0369527950A94E2F721703327042E93
:1020700001C0220F0A94EAF7822B4F5F5F4F443072
:10208000510559F70895282F862F943068F42C3085
:1020900058F4622F70E02CE0929F600D711D1124A6
:1020A00048E652E00E94EE0F0895292F943068F41C
:1020B0008C3058F490E068E672E03CE0239F800D9D
:1020C000911D11240E941B10089580E00895A0E046
:1020D000B0E0EDE6F0E10C94052B8C01E09080027D
:1020E000F09081028091820290918302E82AF92A7D
:1020F000CFE0D0E0CC24C394D12CC6010C2E02C07A
:10210000880F991F0A94E2F78E219F21892B49F4A9
:10211000219798F7B12C8B2DCDB7DEB7E9E00C9461
:10212000212BBC2EB8018C2F0E949017019781F3B0
:10213000F2CFCF93DF93D82FC92F0E9467106D2F56
:102140007C2F0E949017DF91CF9108951F93CF931A
:10215000DF93162FD72F90916702992341F0862F96
:10216000972F0E949910DF91CF911F910895882396
:1021700081F0862F972F0E946710C82F682F812F1C
:102180009D2F0E944310612F7D2F8C2F0E9490174E
:10219000EACF862F972F0E945510C82FF4CF0F93A8
:1021A0001F93CF93E0918402C7E0809185028E1344
:1021B00004C0CF911F910F9108950E2F10E0CE9F74
:1021C000F0011124EA57FD4F208131814281538172
:1021D0006481758186810E944E0FF8013196E77007
:1021E000E4CF2091BE023091BF024091C0025091D5
:1021F000C1026091C2027091C3028091C4020E9428
:102200004E0F0895E09184029091850227E0E91332
:1022100002C080E00895AE2FB0E02E9FF00111249F
:10222000EA57FD4F3181361306C03081381303C0A1
:102230003581341304C0FD013196E770E8CF81E0A9
:102240000895A0E0B0E0E7E2F1E10C94072B809163
:10225000C402803108F04BC08091C302882309F486
:1022600046C0C091840287E0D82E809185028C17E9
:10227000F1F1EC2EF12CDC9EE0011124FE01EA5775
:10228000FD4F84818823C1F191818091BF02981311
:1022900033C090818091BE0298132EC08581811138
:1022A0002BC0028113818091C0029091C102081B52
:1022B000190B60E08EEB92E00E94630A6EEB72E015
:1022C0000E94360808171907B8F48091C4028F706D
:1022D00080618093C402C457DD4F88818F70806114
:1022E00088838EEB92E00E94CE0E0E94CF10CDB775
:1022F000DEB7E7E00C94232BE7012196C770B5CF3A
:10230000ADE0B0E0E6E8F1E10C94FF2A8C0186E054
:10231000F801DE01189601900D928A95E1F7F80117
:1023200060805180F580C280D38074808EEBA82EAF
:1023300082E0B82E8091C20281111BC0772009F47F
:1023400005C1FF2009F44EC1C8010E94370F882340
:1023500009F448C187E0F801D50101900D928A95F2
:10236000E1F7C5010E94F80B0E9421110E94F110B3
:10237000EDC0E090C3028091C0029091C10246017D
:10238000881A990A60E08EEB92E0EE2009F4E1C031
:102390000E94630A6EEB72E00E9436088816990666
:1023A00008F0A4C0772009F4D1C08091C402209124
:1023B000BF02F8019181803108F05BC029131BC076
:1023C0002091BE029081291316C0F1104CC08F706D
:1023D00080618093C4020E94F1108EEB92E00E9413
:1023E000CE0E8091C402F8018683F12C8F2D2D969C
:1023F000EFE00C941B2BF11036C040E0652D862DCC
:102400000E94021140E0652D862D0E940211F82ED7
:102410008111EBCF888599850E949910292F2295EB
:102420002F70903450F49F70223080F0992391F0F7
:10243000F8019681903170F4D9CF2A5F2F70223045
:1024400068F0C8010E94CE0EFE2CD0CF992311F067
:10245000882361F2805E883048F2F3CF803F30F20B
:10246000815F8230F9CF8091C40281608093C40281
:10247000BCCF291314C02091BE02908129130FC034
:10248000F1100DC08683C8010E94CE0E87E0F801CE
:10249000AEEBB2E001900D928A95E1F767CFC801EB
:1024A0000E94370F882309F49DC0FF2009F49AC0C9
:1024B0008091C402803288F02091BE023091BF0228
:1024C0003A832983DC82CB829091C2029D831E8253
:1024D0008F83CE0101960E94CE0E87E0F801AEEB0D
:1024E000B2E001900D928A95E1F73ECF8091C4024F
:1024F0008031A0F4488559856A857B858C859D85CA
:102500000E94440F8EEB92E00E94CE0E87E0F50110
:1025100011928A95E9F70E94F11067CF7720B1F008
:102520002091BF02F80191812913B9CF2091BE02F9
:1025300090812913B4CFF110B2CF8683C8010E94D5
:10254000CE0E87E0F50111928A95E9F7FF24F39406
:102550004DCF0E94630A6EEB72E00E943608881627
:10256000990608F043C0772089F3FF20D9F19091B4
:10257000BF02F801818198132BC09091BE02808127
:10258000981326C08091C0029091C102C81AD90A3E
:10259000FEE6CF16D10498F48091C40280FD0FC0EE
:1025A000803168F0F8018683982F907F903F09F47E
:1025B0006ACF982F907F905F8F70892B63CF87E0D1
:1025C000F801AEEBB2E001900D928A95E1F7BECF33
:1025D000C8010E94370F811180CF8091C4028160B1
:1025E0008093C402C8010E94CE0EB0CF48855985A1
:1025F0006A857B858C859D850E94440F87CFAEE0E0
:10260000B0E0E5E0F3E10C940B2B288739874A878B
:102610005B876C877D878E87CE0108960E9480112C
:102620008823B1F06C85662341F0288539854A8579
:102630005B857D858E850E944E0F17E08091840218
:102640009091850289133EC02E96E3E00C94272BCF
:1026500087E0FE013896DE01119601900D928A9571
:10266000E1F720918502409184028C85882329F32B
:1026700030E0C90101968770992750E084179507CB
:1026800099F097E0929FD001939FB00D1124AA5723
:10269000BD4FFE01319601900D929A95E1F780931E
:1026A00085020E94CF10C9CF0E94150F109285029B
:1026B0001092840287E0EEEBF2E0DF011D928A9532
:1026C000E9F7BBCF189FC00111248A579D4F0E9484
:1026D0008011882309F4B8CFE09184021E9FF00195
:1026E0001124EA57FD4F2081318142815381648159
:1026F000758186810E944E0F8091840290E0019640
:10270000877099278093840299CF8091ED028695F6
:102710008695869508958091ED0287700895909131
:10272000ED02977081E0911101C080E008958091E1
:102730001903089590911903982B90931903089504
:10274000982F9095809119038923809319030895F8
:1027500010921903089590911803982B90931803E1
:102760000895982F909580911803892380931803DA
:10277000089510921803089508950E94BC130895B7
:102780009091EE02292F2823222331F0809589236E
:102790008093EE020E94BD13089508950E94CD1308
:1027A00008959091EF02292F2823281729F0982BBC
:1027B0009093EF020E94CE1308959091EF02292F7B
:1027C0002823222331F0809589238093EF020E94F1
:1027D000CE1308958091EF02882329F01092EF0222
:1027E00080E00E94CE130895CF93DF93C091190328
:1027F00080911803C82BD091EF02DD2331F00E94A5
:102800001A2181110E94EA13CD2B8C2FDF91CF91D9
:102810000895CF93DF93C091AA01D091AB010E949C
:10282000F4138883C091AA01D091AB0148E050E035
:1028300065EE72E0CE010E94472B892B59F088E0AB
:10284000FE01A5EEB2E001900D928A95E1F7CE016E
:102850000E942A20DF91CF910895CF93DF93C091FA
:10286000A801D091A9010E94F4138983C091A80105
:10287000D091A90140E250E065EC72E0CE010E94E7
:10288000472B892B59F080E2FE01A5ECB2E00190C4
:102890000D928A95E1F7CE010E947320DF91CF91CE
:1028A00008958091BE01882339F08091560387FFF7
:1028B00003C00E942D1408950E94091408950895DC
:1028C0000E945F1408959091570392FF11C098E001
:1028D000899F90011124622B6093ED020E94A00F4A
:1028E0008091ED028695869586950E9460140895E4
:1028F0000E94A00F08951092ED0280E00E946014E3
:1029000008959091ED02809589238093ED02282F00
:10291000277021110DC0891759F09091570392FF2C
:1029200007C08695869586950E94B00F0E947B14FD
:102930000895CF93C82F8091570382FB992790F970
:102940009C17E9F0C0FB82F98093570380915603EE
:10295000909157030E94F41482E00E9481148091A8
:102960002C0380FF0CC01F92CF9381EC92E09F93C9
:102970008F930E9404040F900F900F900F90CF91AF
:1029800008958091570382FB882780F991E0892779
:102990000E949914089581E00E949914089580E09E
:1029A0000E94991408956FEF7FEF80E090E00E94FD
:1029B000992B089580E090E00E94652B9C0181E0B6
:1029C000263E3E4F09F080E0089582E090E00E94AC
:1029D0005D2B089583E090E00E945D2B089584E0D4
:1029E00090E00E94652B0895BC0184E090E00E9475
:1029F000992B0895AB01BC018FE090E00E948D2BD4
:102A00000895AB01BC0183E190E00E948D2B0895F5
:102A100060E070E0CB010E940115089560E070E075
:102A2000CB010E94FA140E9408150895A8E0B0E0B6
:102A3000ECE1F5E10C940C2B66EE7EEF80E090E08B
:102A40000E94992B60E082E090E00E947B2B81E065
:102A500090E0909383028093820261E083E090E0B3
:102A60000E947B2B60E074E184E090E00E94992B4F
:102A700060E086E090E00E947B2B6FEF87E090E0C3
:102A80000E947B2B40E050E0BA0188E090E00E9479
:102A90008D2B60E084E290E00E947B2B60E087E178
:102AA00090E00E947B2B60E08CE090E00E947B2B0A
:102AB00060E08DE090E00E947B2B19821A821B82DD
:102AC0001C821D821E821F82188648E050E068E149
:102AD00070E0CE0101960E946B2B40E050E0BA01FD
:102AE00080E290E00E948D2B0E940E152896E2E075
:102AF0000C94282B0E9416150895682F8EE090E004
:102B00000E947B2B0895A6E0B0E0E9E8F5E10C9483
:102B10000A2B0E94FF228C0180911A0390911B03C3
:102B20008017910779F019821A820E94FF22BC0156
:102B300049815A8180E090E00E94C80B10931B03EA
:102B400000931A032696E4E00C94262B0E940B2394
:102B5000609328037093290380932A0390932B0397
:102B60006093240370932503809326039093270397
:102B70000895089508950E94B91508950E94E907DF
:102B800008958CE295E20E94691A0E94BA150E948B
:102B9000BB15089581E008950E94CA1508950E940A
:102BA000CA150895089508950E94D2150E94D3155C
:102BB00008950E94A5180E947A0B08950E94F6229B
:102BC0000E94B9190E94D915E6E5F3E0808180687A
:102BD000808380915603909157030E94F4140E94C1
:102BE000BE150895A6E0B0E0E8EFF5E10C94002BE7
:102BF0000E94CC1581110AC00E9483150E949D1D60
:102C00000E948D0B2696EEE00C941C2B0E94CF198F
:102C10002CE1822E23E0922E640110E0F601E19077
:102C2000F1906F01812F0E94CA181F5F143009F4C0
:102C30004DC0E816F90691F380912C0381FD0E94A6
:102C4000D3180E94CF15782EF12C662463948F2D13
:102C50000E94CA188C01F401A190B1904F018A150D
:102C60009B0569F1A826B926E12CCC24C394D12C6C
:102C7000C5018C219D21892BC1F07720B1F0E9821B
:102C8000FA820E94FF229C838B836D8221E0C8011F
:102C90008C219D21892B09F420E049815A816B8187
:102CA0007C818D81922F0E94C80BE394CC0CDD1C9B
:102CB000FCE0EF12DDCFF401329711830083F3942F
:102CC00084E0F812C4CF0E94A61598CFE816F90642
:102CD00009F0B2CF91CF1F93CF93DF930E94951746
:102CE000EC01811522E5920708F053C0811540E5FB
:102CF000940708F0DDC0803E9105F8F48D3C910505
:102D000008F0AEC0883A910580F4853A910508F044
:102D100099C08130910521F00497813A910550F4D2
:102D2000CE01DF91CF911F910895885A91094B9759
:102D300008F48BC0C0E0D0E0F3CF811550E49507D4
:102D4000F8F4C11580E2D80708F0CBC0C83ED10521
:102D500038F3CE019A9581159F4160F78D2F0E941F
:102D60003918182FCE0199270E949517212F30E08E
:102D7000322F2227E901CC27DF71C82BD92BD0CFE6
:102D800099270E949517CC27DF70C82BD92BD06AC2
:102D9000C7CF803842E59407C8F5803652E59507DD
:102DA00008F067C0C03482E5D807B0F08C2F869554
:102DB0008695877020E2829FC0011124C37021E0B4
:102DC00030E0A90102C0440F551FCA95E2F7EA019D
:102DD000C82BD92BDC68A4CFC03252E5D50708F048
:102DE00041C08C2F8695869520E2829FC0011124D8
:102DF000C37021E030E0A90102C0440F551FCA95FD
:102E0000E2F7EA01C82BD92BDD688ACF803C52E576
:102E1000950760F48F71C03AD24508F03FC090E04A
:102E2000982F8827EC01C46FD06A7ACF805C9245D6
:102E3000809708F07FCFDC2FCC27CC27DF71C06FC5
:102E4000D06A6ECFA497D0646BCFC85AD0E0CC0FB5
:102E5000DD1FC75FDD4F0990D881C02DD46460CFDE
:102E6000D0655ECFCF71D0E0DC2FCC27C16FD06AA8
:102E700057CF86958695877020E2829FC0011124E6
:102E8000C37021E030E0A90102C0440F551FCA956C
:102E9000E2F7EA01C82BD92BDA6842CF0E94391831
:102EA000C82FD0E0DC2FCC27CC27DF71D06238CF01
:102EB0008F710E94391865E0D695C7956A95E1F73C
:102EC000CF70D0E0DC2FCC27282F30E084FF05C066
:102ED00054E0220F331F5A95E1F7C22BD32BD06950
:102EE0001FCF8D2F8F710E943918182FCE0199276F
:102EF0000E949517212F30E0322F222722273F7181
:102F0000282B392BE901D2CF462F672F743028F4B4
:102F10004C3018F40E94A009089580E090E00895D4
:102F20000E9484170E946B160895803E9105D1F18E
:102F3000C8F48133910509F47FC048F489329105C2
:102F400009F46FC08A32910509F47DC00895893370
:102F50009105E1F082389105C9F08533910509F4B6
:102F60005BC00895843E9105D1F148F4823E9105FD
:102F700031F1833E910541F181EE90E00895863E66
:102F80009105C1F1873E9105E1F108952091560325
:102F90002370211165C02091570323FF14C089E2DB
:102FA00090E008952091560320FD43C030915703CF
:102FB00030FF09C024FF4EC080E090E008952091CA
:102FC000560322FDF7CF08952091560322FD45C0F8
:102FD0003091570330FD44C024FFF5CFEDCF209151
:102FE000570321FFF0CF8091560384FDE5CF87EE94
:102FF00090E008952091560323FFE5CF24FDDCCF18
:10300000F6CF2091560323FD2EC03091570331FF98
:10301000E3CF84EE90E008952091560325FFD3CFAF
:10302000BECF2091560325FD21C02091570323FFD9
:10303000CACF89E390E008952091560326FFC3CFBD
:103040008AE290E008952091560326FFBCCF81E3E9
:1030500090E0089583EE90E0089582EE90E0089568
:1030600080EE90E0089586EE90E0089585E390E08C
:10307000AACF9091560392FF10C041E0282F2471EF
:10308000243009F040E031E0282F2871283009F081
:1030900030E0431711F02CE0822793FF10C041E08D
:1030A000282F2471243109F040E031E0282F2871C5
:1030B000283109F030E0431711F02CE082273091DD
:1030C000570330FF10C051E0282F2171213009F043
:1030D00050E041E0282F2871283009F040E05417D3
:1030E00011F029E0822731FF10C041E0282F217123
:1030F000213109F040E031E0282F2871283109F012
:1031000030E0431711F029E0822794FD877E08956F
:103110000E94D31408950E94CF192FEF86E791E003
:10312000215080409040E1F700C000000E94CF197C
:1031300080E00E94CA1880FF04C00E9488180E9484
:103140005B2308950E948B1808950E94DA14811160
:1031500002C00E947A150E94E51480932C030E94FD
:10316000EF1490935703809356030E94A2180E9475
:10317000EA1490E00E94640F809180029091810295
:103180000E94850F089508950E94C31808950E9413
:10319000EF070895E82FF0E0EE0FFF1FE05AFC4F15
:1031A000808191810895A0E0B0E0E9EDF8E10C9410
:1031B000062B86EE92E00E946B0380E6E82E83E009
:1031C000F82EC0E0D0E091EEC92E92E0D92E08EDA5
:1031D00012E0DF93CF93DF92CF920E9404048EED32
:1031E00092E00E946B03F701819191917F010E940F
:1031F0005A0B9F938F931F930F930E94040486EDA5
:1032000092E00E946B0321968DB79EB708960FB689
:10321000F8949EBF0FBE8DBFC430D105D1F6CDB797
:10322000DEB7E8E00C94222B80EA8A95F1F7089546
:1032300000C008950E9414190895F894E82FE295AB
:10324000EF70F0E041A18F7021E030E0B90102C0E1
:10325000660F771F8A95E2F7CB01962F90959423FE
:1032600091A392A1892B82A378940895CF93DF93A1
:1032700085E90E941D1986E60E941D1986E30E94B9
:103280001D1986EC0E941D19CFE3D2E089918F3F72
:1032900011F00E941D1982E0CB34D807B9F7DF91F5
:1032A000CF910895A0E0B0E0E8E5F9E10C94052B9A
:1032B000EC01B62E062F10E0C801855B9D4F7C0106
:1032C000FC0180818F3F09F44FC0F894E82FE2950C
:1032D000EF70F0E091A18F7021E030E001C0220F8B
:1032E0008A95EAF7892F822B81A382A12095282332
:1032F00022A378940E941819EFE3F2E041E050E035
:10330000C12CD12C21912F3F89F0A22FA295AF7013
:10331000A05EB0E08C9190E02F7002C095958795EB
:103320002A95E2F781709A01882311F020E030E0BD
:10333000C22AD32A440F551F82E0EB34F80711F755
:10334000F70180818F3F11F00E941D1961E0C114C7
:10335000D10409F460E08B2D0E941A19000F111F8F
:10336000C00FD11FD982C882CDB7DEB7E9E00C9477
:10337000212B0E94361988E0E0E6F3E0DF01982F68
:103380001D929A95E9F7E8E5F3E0DF011D928A9531
:10339000E9F784E00E940C1A0E94C4180895A8E07E
:1033A000B0E0E5EDF9E10C94092BFE01319688E0DF
:1033B000DF011D928A95E9F710E0FE2E0F2F612F95
:1033C0008F2D902F0E9452191F5F1430C1F748E0D3
:1033D00050E06F2D702F88E593E00E94472B21E08D
:1033E000892B81F420E044E060E673E088E593E017
:1033F0000E940D1A182F0E94C718812F2896E5E009
:103400000C94252B88E0EF2DF02FA8E5B3E0019078
:103410000D928A95E1F7E7CF0895A0E0B0E0E3E1EF
:10342000FAE10C94062BD82EE92EF62ED72F042F76
:10343000C22F222379F081E080932F030E94FF2284
:1034400090932E0380932D0380E0CDB7DEB7E8E0A4
:103450000C94222BC0902F03CC20B1F380912D032C
:1034600090912E030E942823059770F310E0000F1F
:10347000111FA8016D2D7E2D8F2D9D2F0E94472B92
:10348000892B41F0A8016D2D7E2D8F2D9D2F0E943F
:10349000542BCC2D10922F038C2FD7CF0E94A82510
:1034A0000E94DE150E94B52508950E94BA250E944B
:1034B000F2150E94DC2508950E9498220E948E2514
:1034C0000E94C1150E944E1A0E94551A0E94D415DE
:1034D000FBCF90935F0280935E020895CF93DF93BA
:1034E000EB0186319C4719F50E9497139D81992322
:1034F000A1F08A7A91E0811101C090E090933003AD
:10350000882349F085E30E94E8210E94511480E05D
:10351000DF91CF91089589E2F6CF8091300388231F
:1035200021F085E30E94FF21F0CF89E2FBCF81E00B
:10353000EFCFCF93DF93EC01FB018581882309F462
:10354000D2C09E0130572332310508F0B2C00E942C
:10355000EF149093570380935603FE01E150F04718
:10356000E232F10520F4EB53F44D0C94F62A8091ED
:10357000560381608093560393C0809157038860FF
:10358000809357038DC0809156038260F3CF809162
:1035900056038460EFCF809156038860EBCF809113
:1035A00057038160EDCF809157038260E9CF80910E
:1035B00056038061DFCF809156038062DBCF80911C
:1035C00056038064D7CF0E94150F80915603806800
:1035D000D1CF809156038C60CDCF8091570383600B
:1035E000CFCF809156038E7FC5CF80915703877FC1
:1035F000C7CF809156038D7FBDCF809156038B7FBF
:10360000B9CF80915603877FB5CF809157038E7FC6
:10361000B7CF809157038D7FB3CF809156038F7EB4
:10362000A9CF809156038F7DA5CF809156038F7BC4
:10363000A1CF0E94150F809156038F779BCF809169
:103640005603837F97CF809157038C7F99CF8091CA
:10365000560382FB992790F921E0922790FB82F98B
:1036600090FB83F987CF80915703982F90959170A5
:103670008E7F892B90FB81F983CF90915603892F00
:103680008F7B96FF806476CF0E94150F9091560332
:10369000892F97FB87F980586DCF81E00E947D15B7
:1036A00080915603909157030E94F4140E94150FC5
:1036B00080E0DF91CF91089580E0F0CF90915603A4
:1036C000892F8F7E94FF806155CF90915603892F6B
:1036D0008E7F90FF81604ECF90915703892F877F17
:1036E00093FF88604DCF81E0E4CF282F35EB230393
:1036F000C001112497FF04C080589109892F0895B3
:1037000080589F4FFBCF8091370380FF0DC06091A1
:10371000B10170E0660F771F60387105C0F5611563
:103720007105B9F1862F089581FF07C06091B1013D
:1037300084E0689FB0011124EFCF82FF04C0609144
:10374000B10188E0F6CF809136038823E9F09091AB
:10375000B0016091B10170E0891730F093E0660F1D
:10376000771F9A95E1F7D8CF869F9001879F300DFC
:10377000112483E0220F331F8A95E1F7692F70E04F
:10378000C9010E94E22AC8CF68E070E0CBCF8FE782
:10379000089581E008958091370380FF0CC0609107
:1037A000AD0170E075956795759567956115710523
:1037B00061F1862F089581FF06C06091AD0170E030
:1037C00075956795F3CF6091AD0170E082FD15C0EE
:1037D000209135032223B1F09091AC016091AD01AD
:1037E00070E0291750F4269FA001279F500D112447
:1037F000692F70E0CA010E94E22A60387105B0F2B8
:103800008FE7089561E070E0D4CF81E00895909152
:103810003A0320913B03922B20913D03922B209160
:103820003C03922B992331F098E09093360391E07A
:10383000909335038D3C31F40E94831B81958093D6
:103840003B030895E2E3E80FE231B0F5F0E0E9511F
:10385000F44D0C94F62A0E94831BF1CF0E94831B27
:10386000819580933A0308950E94831BFACF0E94AA
:10387000CB1B80933C0308950E94CB1B8195F9CF0D
:103880000E94CB1B819580933D0308950E94CB1B22
:10389000FACF815D990B21E030E001C0220F8A95BB
:1038A000EAF780913903822B809339030895809140
:1038B00037038160809337030895809137038260D6
:1038C000F9CF809137038460F5CF40913A038D3C66
:1038D00059F480913B0387FF0DC010923B034423B2
:1038E00059F41092360308C08E3C81F480913B035A
:1038F00018169CF3442381F080913C0390913D0382
:10390000892B811159C01092350308958F3C41F4E1
:1039100047FFF0CF10923A0380913B038823E0CF1A
:10392000803D19F41416B4F3E5CF90913C03893D22
:1039300029F41916FCF610923C03DCCF8A3D19F4E9
:1039400097FFD8CFF8CF90913D038B3D29F497FF97
:10395000D1CF10923D03CECF8C3D19F41916CCF384
:10396000C9CF9FE2980F983090F4815D990B21E0C8
:1039700030E0B90102C0660F771F8A95E2F7CB01EC
:10398000809590913903892380933903B3CF8D3D7E
:1039900031F4809137038E7F80933703ABCF8E3D18
:1039A00021F4809137038D7FF7CF8F3D09F0A2CFAF
:1039B000809137038B7FF0CF089580912C0383FF94
:1039C0007EC084E293E00E946B03809139031F92D2
:1039D0008F938FE193E09F938F930E9404048DE176
:1039E00093E00E946B0380913A03282F082E000C6D
:1039F000330B3F938F938AE193E09F938F930E94C1
:103A0000040488E193E00E946B0380913B03282F1C
:103A1000082E000C330B3F938F9385E193E09F9327
:103A20008F930E94040483E193E00E946B038091D2
:103A30003C03282F082E000C330B3F938F9380E11B
:103A400093E09F938F930E9404048EE093E00E9482
:103A50006B0380913D03282F082E000C330B3F93FE
:103A60008F938BE093E09F938F930E94040488E0F0
:103A700093E00E946B03809136031F928F9385E041
:103A800093E09F938F930E94040483E093E00E944D
:103A90006B03809137031F928F9380E093E09F9395
:103AA0008F930E9404048DEF92E00E946B038DB708
:103AB0009EB74C960FB6F8949EBF0FBE8DBF0E9466
:103AC000FF2220913A0330913B03232B222321F044
:103AD000809333039093340320913C0330913D0352
:103AE000232B222321F0809331039093320388E328
:103AF00093E00E94BF20089586E0E8E3F3E0DF0151
:103B00001D928A95E9F710923603109235031092B0
:103B100037030895FC01828181110DC083818111D9
:103B20000AC08481811107C081E09581911101C093
:103B300080E08170089581E0FCCFA6E0B0E0E3EA88
:103B4000FDE10C94092B86E0E8E3F3E09E012F5F92
:103B50003F4FD90101900D928A95E1F710923A03F7
:103B600010923B0310923C0310923D038B819C8189
:103B7000892B8901882391F080913303909134033C
:103B80000E9428239C01809136038823C9F140912B
:103B9000B20150E04217530708F43FC08D819E8167
:103BA000892B882399F080913103909132030E94F0
:103BB00028239C0180913503882309F467C0409134
:103BC000AE0150E04217530708F46EC0B80188E315
:103BD00093E00E943022811105C088E393E00E94A7
:103BE0008A1D81110E94DD1C86E0F801A8E3B3E084
:103BF00001900D928A95E1F72696E5E00C94252B2D
:103C00004091B3019AE0499FA00111244217530744
:103C100028F68F5F8093360302C08F3FD1F7FB8079
:103C2000FF2059F00E94831B91E01F140CF09FEFBE
:103C3000899F802D112480933A03FC80FF2059F046
:103C40000E94831B91E01F140CF09FEF899F802D31
:103C5000112480933B0380913A03882309F49ECF7B
:103C6000F0903B03FF2009F499CF0E94751B81114E
:103C700001C081E080933A038F2D0E94751B882339
:103C800019F080933B038ACF81E0FBCF4091AF01D5
:103C90009AE0499FA00111244217530708F096CFDC
:103CA0008F5F8093350302C08F3FD1F7FD80FF20E7
:103CB00059F00E94CB1B91E01F140CF09FEF899FDD
:103CC000802D112480933C03FE80FF2059F00E9438
:103CD000CB1B91E01F140CF09FEF899F802D1124C6
:103CE00080933D0380913C03882309F46FCFF090CB
:103CF0003D03FF2009F46ACF0E94751B811101C0AA
:103D000081E080933C038F2D0E94751B882319F05E
:103D100080933D035BCF81E0FBCFFF920F931F9316
:103D2000CF93DF93E82FF0E0E95BFC4FF490282F6E
:103D300026952695269530E0F901E951FC4F94919E
:103D40008770F901E952FC4F049110E0082E02C07F
:103D5000159507950A94E2F701701127F901E953C7
:103D6000FC4FC491D0E0082E02C0D595C7950A94A7
:103D7000E2F7C170DD27E92FF0E002C0F595E79585
:103D80008A95E2F7E0FD10C001151105C1F48F2DF1
:103D90000E949E0CCD2B19F08CE20E949E0CCDB798
:103DA000DEB7E5E00C94252B81EE0E940B0C01158B
:103DB000110579F48F2D0E949E0C81EE07C086EECE
:103DC0000E940B0C8F2D0E949E0C86EE0E94530CBD
:103DD000E1CF86EE0E940B0C8F2D0E949E0C86EE8A
:103DE0000E94530CEACFEF92FF921F93CF93DF9381
:103DF000EC01162F8881882309F456C0813009F020
:103E000050C089818130A1F47E0122E0E20EF11CD4
:103E10008A810E949E0CE7012196812F882351F30D
:103E2000EFE9FFE03197F1F700C000008150F6CFD5
:103E3000823041F47E0182E0E80EF11C8A810E940A
:103E40000B0CE9CF833041F47E01E2E0EE0EF11C71
:103E50008A810E94530CDFCF843011F02196DCCF91
:103E60002A81229680E090E06AE0AE014F5F5F4FCA
:103E70002053330B2A30310548F0019768F2EFE9FF
:103E8000FFE03197F1F700C00000F7CF689FF00125
:103E9000699FF00D1124C9018E0F9F1F2981EA012E
:103EA000E4CF0E948D1EB8CFDF91CF911F91FF907C
:103EB000EF90089560E00E94F31E0895A0E0B0E046
:103EC000E4E6FFE10C94042B7C015B01C42FD22FAC
:103ED000FC0185818823C9F0409340030E94FF22A2
:103EE00090933F0380933E0380E28C0F883040F430
:103EF000C77081E001C0880FCA95EAF70E94A70C3D
:103F0000CDB7DEB7EAE00C94202B109140031413D8
:103F100042C080913E0390913F030E9428236C0190
:103F2000B701C5010E943608C816D906A0F5C0E23F
:103F3000CD0F1D1749F180E2810F883048F41770CA
:103F400081E0012E01C0880F0A94EAF70E94AE0CAE
:103F5000C83020F0802F0E949E0CD2CF91E08D2F90
:103F6000877001C0990F8A95EAF7892F0E94A70CE4
:103F7000802F0E949E0CD77081E001C0880FDA95D7
:103F8000EAF70E94AE0CBCCF802F0E949E0CC83076
:103F900008F0B6CFF0CF80E28C0F883008F0B0CFB9
:103FA000C77081E001C0880FCA95EAF7EACF0F9386
:103FB000FC01CB01E851FC47E730F10590F5E750F3
:103FC000F44D0C94F62A06E221EE41EE6AE17CE71C
:103FD0000E945E1F80E00F91089507E225EE45EEF6
:103FE0006BE17CE7F5CF06E221EE40EE68E17CE78D
:103FF000EFCF07E225EE44EE69E17CE7E9CF06E288
:1040000021EE42EE6CE17CE7E3CF07E225EE46EEDF
:104010006DE17CE7DDCF08E221E045EE6EE17CE773
:10402000D7CFFB01858181111092400381E0D3CF6E
:1040300090934603809345030895E0914503F091E2
:104040004603309729F00190F081E02D09950895FD
:1040500080E00895EF92FF920F931F93CF93DF9329
:10406000EC01E0914503F09146033097B9F10280ED
:10407000F381E02D099580912C0382FF2FC080FFF2
:104080000DC088811F928F938CE194E09F938F9352
:104090000E9404040F900F900F900F90CE0106968F
:1040A0007C0106E114E080912C0380FF0BC08A8123
:1040B0001F928F931F930F930E9404040F900F90F1
:1040C0000F900F902196CE15DF0569F780912C0394
:1040D00080FF04C084E194E00E946B03CDB7DEB79B
:1040E000E6E00C94242BEF92FF920F931F93CF9353
:1040F000DF93EC01E0914503F09146033097D1F155
:1041000086E088830480F581E02DCE0109958091B9
:104110002C0382FF2FC080FF0DC089811F928F93D7
:104120008FEF93E09F938F930E9404040F900F9062
:104130000F900F90CE014E967C0109EF13E0809115
:104140002C0380FF0BC08A811F928F931F930F93C4
:104150000E9404040F900F900F900F902196CE159F
:10416000DF0569F780912C0380FF04C087EF93E09F
:104170000E946B03CDB7DEB7E6E00C94242BDC0184
:10418000E0914503F0914603309739F082E08C933B
:104190000680F781E02DCD0109950895A3E0B0E0F8
:1041A000E4EDF0E20C940C2B9C0180914303909180
:1041B000440382179307A1F03093440320934303F1
:1041C000E0914503F0914603309751F083E08983F5
:1041D0003B832A830084F185E02DCE010196099569
:1041E0002396E2E00C94282BA3E0B0E0EAEFF0E2A3
:1041F0000C940C2B9C0180914103909142038217F7
:104200009307A1F03093420320934103E0914503CB
:10421000F0914603309751F084E089833B832A83F1
:104220000084F185E02DCE01019609952396E2E008
:104230000C94282B2091AA013091AB012E5F3F4FA7
:104240008091BE018823A9F08091560387FF11C099
:104250002091A8013091A9012E5F3F4F9DE180E0A0
:10426000F90140812F5F3F4F41118F5F9150C0F79F
:10427000089595E0F4CF882321F19091BE01992310
:1042800011F19091560397FF1EC0982F9695969521
:104290009695803FB0F4E091A801F091A901E90F53
:1042A000F11D228130E0877041E050E0BA0102C088
:1042B000660F771F8A95E2F72623372381E0232BA9
:1042C00091F480E008952091AA013091AB01F901A9
:1042D0003296285F3F4F9191981721F0E217F3072C
:1042E000D1F7EFCF81E008959C01FC0132968FEF6A
:1042F00090E04191461751F08F3F19F4411101C0F0
:10430000892F9F5F9630A9F78F3F09F40895280FF2
:10431000311D87FD3A95F901628308959C01FC01E6
:104320003296285F3F4F8191861303C0DF011197BA
:104330001C92E217F307B9F70895FC01862F8695C2
:1043400086958695603F68F4E80FF11D677021E05F
:1043500030E001C0220F6A95EAF78281822B8283C6
:10436000089580912C0380FF0CC01F926F9383E50A
:1043700094E09F938F930E9404040F900F900F90EE
:104380000F900895FC01862F869586958695603F4F
:1043900070F4E80FF11D677081E090E001C0880FB4
:1043A0006A95EAF7809592818923828308958091A6
:1043B0002C0380FF0CC01F926F9385E394E09F93C2
:1043C0008F930E9404040F900F900F900F90089508
:1043D000682F8091BE01882359F08091560387FF92
:1043E00007C08091A8019091A9010E949D21089584
:1043F0008091AA019091AB010E9474210895682FC9
:104400008091BE01882359F08091560387FF07C031
:104410008091A8019091A9010E94C22108958091E4
:10442000AA019091AB010E948E2108958091BE0156
:10443000882379F08091560387FF0BC0E091A80193
:10444000F091A90132968EE1DF011D928A95E9F77C
:104450000895E091AA01F091AB01329686E0F4CF85
:10446000DC01FB0111969C9111978181981322C068
:1044700012968C911297882319F0928189131AC091
:1044800013968C911397882319F09381891312C086
:1044900015968C911597882319F0958189130AC078
:1044A00014969C91992321F081E02481291303C063
:1044B00080E001C081E08170089508950E945D222E
:1044C00008958F5F809347030E945E22089583E0E2
:1044D000809347030E945E2208950E9461220895FE
:1044E00081E0809347030E945E2208950E9470221B
:1044F0000895089508950E947A22089508950895D0
:104500000E9479220895CF930E947E220E94CF19A3
:104510000E947F22C0E08C2F0E94CA18892B31F4A0
:10452000CF5FC430C1F780E0CF91089581E0FCCF28
:1045300085B7806885BF85B7806885BF08951F925D
:104540001FB61F9211248F939F93AF93BF938091B7
:104550004803811113C08091680390916903A09171
:104560006A03B0916B034196A11DB11D809368034E
:1045700090936903A0936A03B0936B03BF91AF91CB
:104580009F918F911F901FBE1F901895809170036F
:10459000843031F10E94180B1092480388E190E0BA
:1045A00020E40FB6F894A895809360000FBE209386
:1045B000600083B7817F846083BF83B7816083BFDE
:1045C0007894889583B78E7F83BF0FB6F894A895AB
:1045D00080916000886180936000109260000FBE3F
:1045E00008950E94150F0E941D0B089582E084BD5E
:1045F00093E095BD9AEF97BD80936E0008952FB715
:10460000F8948091680390916903A0916A03B09136
:104610006B032FBF0895A4E0B0E0E1E1F3E20C9456
:104620000C2B8FB7F8942091680330916903409167
:104630006A0350916B0329833A834B835C838FBF5A
:1046400069817A818B819C812496E2E00C94282BED
:104650009C014FB7F8948091680390916903A091F1
:104660006A03B0916B034FBF821B930B089578943C
:104670001F921FB61F9211248F939F93AF93BF93E6
:104680008091680390916903A0916A03B0916B03D4
:104690000196A11DB11D8093680390936903A093B7
:1046A0006A03B0936B03BF91AF919F918F911F905D
:1046B0001FBE1F90189581E08093E00080E28093F8
:1046C000D8001092C9008FE19EE40197F1F700C075
:1046D000000087E090EBDC018093790390937A03EC
:1046E000A0937B03B0937C0388E19CE00FB6F89421
:1046F000A895809360000FBE90936000FFCF88E183
:104700009CE00FB6F894A895809360000FBE90933C
:104710006000FFCF809154030895282FCB01BA0188
:10472000309170033430E1F42F702093E9002FEFC3
:104730003091E80035FD07C035ED3A95F1F70000FE
:1047400021502111F5CF2091E80025FF09C040E05C
:1047500050E00E9455268091E8008E778093E80013
:104760000895BC0143E050E082E00E948D2308954B
:10477000BC0146E050E082E00E948D230895BC0118
:1047800040E250E082E00E948D230895CF93DF93B2
:10479000D82FC92F48E050E0682F792F81E00E9480
:1047A0008D2388E0ED2FFC2FACE4B3E001900D9257
:1047B0008A95E1F7DF91CF91089587E994E00E940F
:1047C0006B0380916F03811109C00E94DD270E9455
:1047D0003A288091E20084608093E200089583E9A2
:1047E00094E00E946B0310926F0308958FE894E0A9
:1047F0000E946B030E94702208958BE894E00E944F
:104800006B0360916C0381E0611101C080E00E9444
:104810006722089587E894E00E946B0390917003EB
:1048200081E0943009F080E060916C030E946D2279
:10483000089520914A032F5F822F62E30E94D62AB7
:10484000992319F020934A03089510924A03809106
:104850004B038823E9F0809170038430B9F4909180
:10486000E9008091EC008795882787959F70892BB8
:1048700093E09093E9009091EB0090FF04C0909139
:10488000EE0097FD08C08F708093E90010924B03F3
:1048900008951092F1009091E80095FDFACF909163
:1048A000E80090FFF0CF9091E8009E779093E800A9
:1048B000EACF42E061EC81E00E94592742E261ECDC
:1048C00082E00E94592742E261EC83E00E9459276E
:1048D0009091700381E0943009F080E060916C0366
:1048E0000E946122089580917203893089F148F411
:1048F000823009F4A0C0833009F45AC0813041F0FD
:1049000008958A3009F487C08B3009F46CC008958B
:1049100080917103813A09F04AC08091E800877F55
:104920008093E8008091750390917603892B61F064
:1049300060E080E090E070E00E94A4268091E800B2
:104940008B778093E800089568E08CE493E0F3CFE0
:1049500080917103813259F58091750390917603AE
:10496000029728F58091E800877F8093E800809186
:10497000E80082FF18C09091F3008091F200029746
:1049800031F48091F100813011F0863021F4809172
:10499000F100809354038091E8008B778093E800C6
:1049A0000E948D2704C0809170038111E0CF08958B
:1049B00080917103813AD9F78091750390917603C4
:1049C000892BA9F78091E800877F8093E800809188
:1049D000E80080FFFCCF8091BE018093F1008091C0
:1049E000E8008E77DBCF80917103813201F78091EF
:1049F000750390917603892BD1F68091E800877F2B
:104A00008093E8000E948D27809173038093BE01FC
:104A10000E94150F089580917103813241F68091B3
:104A2000E800877F8093E8000E948D2780917403BF
:104A300080935503089580917103813A09F0B7CFAF
:104A40008091E800877F8093E8008091E80080FFF4
:104A5000FCCF80915503C1CF9FB7F89410924B03C0
:104A60009FBF90917003943009F048C02091E900F5
:104A70009091EC009795992797952F70922B23E0B2
:104A80002093E9002091EB0020FF35C02091EE003B
:104A900027FF31C020914903222321F02091E80013
:104AA00025FF29C01092490326E03091E80035FF28
:104AB00014C08093F1008091E80085FD28C08091AA
:104AC000E80080FFFCCF8091E8008E778093E800BB
:104AD0009F709093E90080E0089530917003343026
:104AE00051F43091EB0035FD06C02150211108C072
:104AF00081E0809349039F709093E9008FEF0895C0
:104B0000EFE9FFE03197F1F700C00000CECF8FB79B
:104B1000F89421E020934B038FBFDACF84B7877FCF
:104B200084BF0FB6F894A895809160008861809347
:104B30006000109260000FBE80E890E00FB6F8941D
:104B400080936100909361000FBE0E9476220895C9
:104B50000E94DD270E943A28E2EEF0E08081846026
:104B6000808378940E94BC2A089584EB91E00E948F
:104B70001820089580917003853071F480912C0382
:104B800080FF04C081E794E00E946B038091700372
:104B9000853019F00E94F12208950E94C62280916A
:104BA0006E03882399F30E948322882379F30E945D
:104BB0003F260E94150FEACF08959A01409177038E
:104BC000509178030E94E5250895AC01CB01D901ED
:104BD000252F33272330310521F168F421303105A9
:104BE00009F443C02230310509F444C080E090E06C
:104BF00020E030E024C02132310551F1223231056C
:104C0000A9F78330910590F7FC01EE0FFF1FEE5AD4
:104C1000FD4F20813181815B9D4FFC01808190E0BF
:104C20000EC0CA019927413069F08230910569F0C0
:104C3000EDEBF4E0892BD1F6849190E09F012D9368
:104C40003C930895E9EAF4E0F7CFEBE9F4E0F4CF20
:104C50008330910558F6FC01EE0FFF1FE85AFD4F17
:104C60002081318189E090E0EACF82E190E02CE17F
:104C700035E0E5CF8BE590E021EC34E0E0CF80E15A
:104C800089BD82E189BD09B400FEFDCF8091D800C5
:104C90008F7D8093D8008091E00082608093E00057
:104CA0008091E00081FDFCCF0895AF92BF92CF923A
:104CB000DF92FF920F931F93CF93DF936C01EB0171
:104CC0008A010E94AC27F82E811123C0011511051D
:104CD00039F0F80180819181C81BD90BC80ED91E0B
:104CE000A12CB12C2097A9F08091E80085FD22C06D
:104CF0008091E8008E778093E80001151105A1F0FE
:104D0000F801808191818A0D9B1D9183808385E0CC
:104D1000F82E8F2DDF91CF911F910F91FF90DF9093
:104D2000CF90BF90AF9008950E94AC278823E1F206
:104D3000F82EEFCFF60181916F018093F10021975A
:104D4000FFEFAF1ABF0ACECFFC019B018091770322
:104D5000909178038617970718F0672B61F0C901C7
:104D600040E0009771F441110CC08091E80082FF8F
:104D700035C080E008958091E8008E778093E80048
:104D8000EECF209170032223A9F12530A9F12091C3
:104D9000E80023FD2DC02091E80022FDE6CF209100
:104DA000E80020FFDECF3091F3002091F200009761
:104DB00019F02830310558F041E02830310509F06C
:104DC00040E02091E8002E772093E800CACF41917F
:104DD0004093F10001972F5F3F4FE9CF809170031F
:104DE000882341F0853041F08091E80083FFBDCFFA
:104DF00081E0089582E0089583E00895FC019B011D
:104E000080917703909178038617970718F0672BA6
:104E100061F0C90140E0009771F441110CC080912C
:104E2000E80082FF36C080E008958091E8008E7728
:104E30008093E800EECF209170032223B1F125305A
:104E4000B1F12091E80023FD2EC02091E80022FD61
:104E5000E6CF2091E80020FFDECF3091F3002091D3
:104E6000F200009719F02830310558F041E0283061
:104E7000310509F040E02091E8002E772093E8000A
:104E8000CACF44914093F100319601972F5F3F4F75
:104E9000E8CF80917003882341F0853041F0809104
:104EA000E80083FFBCCF81E0089582E0089583E0AD
:104EB0000895982F973028F08F708093E90081E053
:104EC00008959093E900242F762F50E0981731F041
:104ED0007091EC002091ED005091F00021FD02C096
:104EE0009F5FE8CF3091EB003E7F3093EB00309135
:104EF000ED003D7F3093ED003091EB003160309359
:104F0000EB007093EC002093ED005093F0002091A3
:104F1000EE0027FDE5CF80E008958091710387FFC3
:104F200013C08091E80082FF06C08091E8008B7773
:104F30008093E80004C0809170038111F2CF08953E
:104F4000809170038823D9F38091E80080FFF8CF27
:104F50008091E8008E77ECCF2091E4003091E5005D
:104F600095E6A9018091EC008170882331F0809151
:104F7000E80080FF06C080E008952091E80022FD4F
:104F80001BC080917003882391F0853091F080914F
:104F9000EB0085FD10C02091E4003091E500421740
:104FA000530701F391509111DCCF84E0089582E022
:104FB000089583E0089581E008950E944C280E949E
:104FC0005428E0EEF0E0808181608083E8EDF0E03D
:104FD00080818F77808319BCA7EDB0E08C918E7FA4
:104FE0008C9380818F7E808310926F0308950F933E
:104FF0001F93CF93DF930E944C280E945428C8ED42
:10500000D0E088818F7788838881806888838881D1
:105010008F7D888319BC1092700310926C031092DC
:105020006E0310926D0300EE10E0F80180818B7F1B
:10503000808388818160888342E060E080E00E9414
:105040005927E1EEF0E080818E7F8083E2EEF0E090
:10505000808181608083808188608083F801808185
:105060008E7F8083888180618883DF91CF911F91BB
:105070000F910895E8EDF0E080818F7E8083E7ED69
:10508000F0E080818160808384E082BF81E0809352
:105090006F030E94F7270895E8EDF0E080818E7F8E
:1050A00080831092E20008951092DA001092E100DD
:1050B00008951F920F920FB60F9211242F933F93D2
:1050C0004F935F936F937F938F939F93AF93BF9310
:1050D000EF93FF938091E10082FF0BC08091E2008B
:1050E00082FF07C08091E1008B7F8093E1000E94E6
:1050F00019248091DA0080FF19C08091D80080FFC8
:1051000015C08091DA008E7F8093DA008091D900FB
:1051100080FF94C080E189BD82E189BD09B400FEB1
:10512000FDCF81E0809370030E94DD238091E10038
:1051300080FF19C08091E20080FF15C08091E200DD
:105140008E7F8093E2008091E20080618093E20094
:105150008091D80080628093D80019BC85E080934C
:1051600070030E94FD238091E10084FF29C080919B
:10517000E20084FF25C080E189BD82E189BD09B4D8
:1051800000FEFDCF8091D8008F7D8093D800809164
:10519000E1008F7E8093E1008091E2008F7E80931A
:1051A000E2008091E20081608093E20080916C03D4
:1051B000882309F449C084E0809370030E940A2484
:1051C0008091E10083FF29C08091E20083FF25C028
:1051D0008091E100877F8093E10082E080937003FB
:1051E00010926C038091E1008E7F8093E1008091AA
:1051F000E2008E7F8093E2008091E20080618093E4
:10520000E20042E060E080E00E9459278091F000D7
:1052100088608093F0000E94F623FF91EF91BF9188
:10522000AF919F918F917F916F915F914F913F913E
:105230002F910F900FBE0F901F90189519BC1092D0
:1052400070030E94EF2372CF8091E30087FF02C0BA
:1052500083E0B2CF81E0B0CF1F920F920FB60F92D2
:105260001124FF920F931F932F933F934F935F93BC
:105270006F937F938F939F93AF93BF93CF93DF935E
:10528000EF93FF9309EE10E0F8018081C091EC00EC
:10529000C795CC27C7958F70FC2EF82A1082C0EFD7
:1052A000D0E08881877F888378940E947529F801EF
:1052B0001082888188608883CF2DCF70C083FF9152
:1052C000EF91DF91CF91BF91AF919F918F917F919E
:1052D0006F915F914F913F912F911F910F91FF908F
:1052E0000F900FBE0F901F901895AAE2B0E0EBE769
:1052F000F9E20C940B2B81E793E0FC0101962091DD
:10530000F100208323E089379207B9F70E947324C4
:105310008091E80083FF38C08091710390917203FF
:105320009A3090F5E92FF0E0E050F44D0C94F62A15
:10533000803889F0823841F5809175038F7087300D
:1053400018F58093E9008091EB0085FB882780F9B0
:105350001092E90006C080916D0390916E03911147
:1053600082609091E800977F9093E8008093F1002D
:105370001092F1008091E8008E7723C0811116C051
:1053800080917303813011F18091E80083FF0AC09E
:105390008091E800877F8093E8008091EB00806235
:1053A0008093EB00AA96E3E00C94272B823061F700
:1053B00080917303882389F01092E9008091E800BE
:1053C000877F8093E8000E948D27DECF81E09330B5
:1053D00009F080E080936E03EFCF809175038F70AA
:1053E0002FEF280F263080F68093E9002091EB0004
:1053F00020FFE2CF933031F48091EB008062809304
:10540000EB00DACF9091EB0090619093EB0021E0FC
:1054100030E0A90102C0440F551F8A95E2F740937E
:10542000EA001092EA008091EB008860E8CF8111D9
:10543000ABCF109173031F778091E3008078812BAD
:105440008093E3008091E800877F8093E8000E94CA
:105450008D278091E80080FFFCCF8091E300806879
:105460008093E30083E0111101C082E08093700318
:105470008BCF8058823008F087CF80917303909152
:1054800074038C3D53E0950799F583E08A838AE2A3
:1054900089834FB7F894DE01139620E03EE051E295
:1054A000E32FF0E050935700849120FF03C08295D2
:1054B0008F703F5F8F708A30C8F0895C90E08D9369
:1054C0009D932F5F243161F74FBF8091E800877F64
:1054D0008093E8006AE270E0CE0101960E94A42663
:1054E0008091E8008B778093E8004ECF805DE6CF17
:1054F0006091750370917603AE014F5F5F4F0E941C
:10550000DD25BC01892B09F43FCF8091E800877F1E
:105510008093E80089819A810E94FE26E1CF80383D
:1055200009F032CF8091E800877F8093E800809176
:105530006C038093F1001ECF811126CF90917303ED
:10554000923008F021CF8091E800877F8093E800B7
:1055500090936C030E948D2780916C03882331F017
:1055600084E0809370030E9459240ECF8091E30061
:1055700087FDF6CF81E0F5CFCF938091700388232C
:1055800099F08091E900C091EC00C795CC27C795B0
:105590008F70C82B1092E9008091E80083FD0E9473
:1055A0007529CF70C093E900CF910895991B79E0D8
:1055B00004C0991F961708F0961B881F7A95C9F7A3
:1055C0008095089597FB072E16F4009407D077FD79
:1055D00009D00E94332B07FC05D03EF490958195AD
:1055E0009F4F0895709561957F4F0895EE0FFF1FAF
:1055F0000590F491E02D09942F923F924F925F9283
:105600006F927F928F929F92AF92BF92CF92DF92D2
:10561000EF92FF920F931F93CF93DF93CDB7DEB737
:10562000CA1BDB0B0FB6F894DEBF0FBECDBF0994CB
:105630002A88398848885F846E847D848C849B8422
:10564000AA84B984C884DF80EE80FD800C811B8130
:10565000AA81B981CE0FD11D0FB6F894DEBF0FBE5F
:10566000CDBFED010895AA1BBB1B51E107C0AA1FC6
:10567000BB1FA617B70710F0A61BB70B881F991FF3
:105680005A95A9F780959095BC01CD010895FB012D
:10569000DC0104C08D910190801921F441505040EB
:1056A000C8F7881B990B0895FB01DC0102C001902B
:1056B0000D9241505040D8F70895F999FECF92BD10
:1056C00081BDF89A992780B50895A8E1B0E042E03D
:1056D00050E00C94A12BDC01A40FB51F41505040A9
:1056E00048F0CB01840F951F2E910E947C2B4150D6
:1056F0005040D0F70895262FF999FECF92BD81BD75
:10570000F89A019700B4021639F01FBA20BD0FB6FF
:10571000F894FA9AF99A0FBE08950396272F0E94DB
:105720007C2B0E947B2B252F0E947C2B242F0C94FA
:105730007C2B0196272F0E947C2B0C947B2BDC0169
:10574000CB01FC01F999FECF06C0F2BDE1BDF89A8C
:10575000319600B40D9241505040B8F70895F89436
:10576000FFCF7F04A9049D048D048804B204A4041F
:105770009804F30CF30C3A0D3A0D9F0DBC0D220D5D
:10578000220DC10D380E490E490EF11A651BF91A8A
:10579000C31AC71AFD1ACB1A011B0D1BD71A5E1BA1
:1057A000DB1A111BDF1A151B3D1BE31A191B441BC7
:1057B000E91A1F1B271BCF1A051BD31A091BED1A49
:1057C000231B331B4D1B5C1BBD1AF51A6C1B2B1CBA
:1057D0002E1C341C491C491C491C491C491C491CD1
:1057E000491C491C371C3C1C401C461C571C5D1C9A
:1057F000611CF31FF91FE31FED1FFF1F05200B2086
:105800009829BE29C429BE29C429172A392AC4299E
:045810008F2A9C2A15
:10581400FFFF000001000000FA000000000000008B
:105824000000000000000000000000000000000074
:105834000000000000000000000000000000000064
:105844000000000000000000000000000000000054
:105854000000000000000000000000000000000044
:105864000000000000000000000000000000000034
:105874000000000000000000000000000000000024
:105884000000000000000000000000000000000014
:105894000000000000000000000000000000000004
:1058A40000000000000000000000000000000000F4
:1058B4000000000000000000F0021003280850015E
:1058C4001E0A14018A23C623BF23B823B123017CF3
:1058D4007C002626002D3E003A3A001D011B0106DD
:1058E400011901E200E900EA00B500B600B700CDF5
:1058F400008301CC008A0192019401210223022435
:10590400022502260227022A02B300B4006F0070A7
:10591400009F01CB019F02A002E200E900EA00B56A
:1059240000B600B700CD008301CC008A0192019437
:10593400012102230224022502260227022A02B39D
:1059440000B4006F0070009F01CB019F02A00234DD
:105954009796943567F0F7F6F1F4F5956636C644F4
:0E596400B622060650052E05D304EC040505F8
:00000001FF
